:100000000C94B1000C9481040C9455050C94CE0012
:100010000C94CE000C94CE000C94CE000C947E0573
:100020000C94CE000C94CE000C94CE000C9475046D
:100030000C94CE000C94CE000C94CE000C94CE0008
:100040000C94CE000C94CE000C941D080C94CE00A1
:100050000C94CE000C94CE000C94CE000C94CE00E8
:100060000C94CE000C94CE0000407A10F35A00A0FD
:10007000724E18090010A5D4E80000E87648170071
:1000800000E40B54020000CA9A3B000000E1F505B1
:10009000000080969800000040420F000000A086FB
:1000A00001000000102700000000E803000000002D
:1000B0006400000000000A000000000001000000D1
:1000C00000002C76D888DC674F0823DFC1DFAE59EB
:1000D000E1B1B796E5E3E453C63AE651997696E87E
:1000E000E6C28426EB898C9B62ED407C6FFCEFBC02
:1000F0009C9F40F2BAA56FA5F490055A2AF75C932D
:100100006B6CF9676DC11BFCE0E40D47FEF520E662
:10011000B500D0ED902E0300943577050080841E45
:10012000080000204E0A000000C80C333333330FA0
:10013000986E12831141EF8D2114893BE65516CF3D
:10014000FEE6DB18D1844B381BF77C1D901DA4BB49
:10015000E424203284725E228100C9F124ECA1E5FE
:100160003D2711241FBECFEFD8E0DEBFCDBF12E088
:10017000A0E0B1E0EAE7F3E202C005900D92A436F8
:10018000B107D9F723E0A4E6B2E001C01D92A03286
:10019000B207E1F70E94470A0C94BB110C940000CF
:1001A000ECE7F0E09081907F8F70982B908308951A
:1001B000ECE7F0E090819F7340E4849F900111246C
:1001C000922B90830895EAE7F0E09081987F982B36
:1001D00090830895EAE7F0E0808180688083089545
:1001E000EAE7F0E080818F7780830895811106C06F
:1001F00080917C008F7D80937C00089580917C00AD
:100200008062F9CF809179000895809178000895F7
:10021000CF93C82F81E00E94D80087E00E94E300BE
:1002200080917A00CF3F61F0806280937A00809164
:100230007B00887F8C2B80937B00CF910C94EA000D
:100240008F7D80937A00F9CF95B79E7F95BF0E94EE
:10025000D000EAE7F0E080818064808308950E9406
:10026000240180917A0086FDFCCF089590917A0058
:1002700095FD16C00E942F018091780090917C001E
:100280002091790095FF1BC094E0299F90011124D3
:100290008295869586958370820F932F911D089580
:1002A00080917A00806180937A0080917A0084FF47
:1002B000FCCF80917A00806180937A00DDCF30E0BE
:1002C000322F2227E9CFEF92FF920F931F93CF9304
:1002D000DF9300D000D000D0CDB7DEB722E0AE0172
:1002E0004F5F5F4F60E080E90E944704898190E0A2
:1002F000982F88272A81820F911D9C01990F440B0A
:10030000550B2B833C834D835E83CA01B9010E9448
:10031000680D2FE632E143E059E36B837C838D83E4
:100320009E836B817C818D819E810E941D0E9B012D
:10033000AC016B837C838D839E836B817C818D81FB
:100340009E810E944D0C9B01AC016B837C838D834D
:100350009E836B817C818D819E810E941D0E2091E8
:1003600065023091660240916702509168026B838A
:100370007C838D839E836B817C818D819E810E9495
:100380004D0C7B018C01AB01BC0140936502509385
:100390006602609367027093680280916D0290918B
:1003A0006E02019690936E0280936D0220916F020F
:1003B00020FF3EC0209164022F5F20936402293108
:1003C000BCF19C0150E040E02B833C834D835E8375
:1003D000CA01B9010E94660D9B01AC01EB82FC824F
:1003E0000D831E836B817C818D819E810E94BE0C5A
:1003F0006B837C838D839E836B817C818D819E81C9
:100400000E94900E6093690270936A0280936B025F
:1004100090936C021092640210926E0210926D0220
:1004200010926502109266021092670210926802A2
:1004300026960FB6F894DEBF0FBECDBFDF91CF91E9
:100440001F910F91FF90EF90089540E06FE080EDD5
:100450000E94000440E06EE080ED0C940004EF92F6
:10046000FF920F931F93CF93DF9300D00F92CDB7DE
:10047000DEB7F82EE62E842F122F0E9446088983BD
:100480008E2D0E9446088A838F2D11111BC00E9459
:1004900046088F731295110F110F107C810F8B83FB
:1004A00023E0AE014F5F5F4F60E080ED0E941704D4
:1004B0000F900F900F90DF91CF911F910F91FF90B0
:1004C000EF9008950E9446080295000F007E8F71FC
:1004D000800FE0CF0F931F93CF93DF9300D000D016
:1004E000CDB7DEB7042F122F8983862F0E944608CE
:1004F0008A83802F0E9446088B83812F0E944608A2
:100500008C8324E0AE014F5F5F4F63E080ED0E947B
:1005100017040F900F900F900F90DF91CF911F91C4
:100520000F9108950F931F93CF93DF9300D00F92F5
:10053000CDB7DEB78C0123E0AE014F5F5F4F60E0C7
:1005400080ED0E9447048981282F22952F709AE020
:100550008F70299F800D1124F80180838A81282FB4
:1005600022952F708F70299F800D112481838B819C
:10057000282F30E0A90196E0559547959A95E1F727
:1005800041704383982F92959F704423A1F085FB7F
:10059000222720F9248391708F70FAE09F9F800DAD
:1005A0001124F80182830F900F900F90DF91CF916B
:1005B0001F910F91089514829370EECF0F931F93A4
:1005C000CF93DF9300D000D0CDB7DEB78C0124E00D
:1005D000AE014F5F5F4F63E080ED0E944704898169
:1005E000F80180838A81982F929593702AE08F700A
:1005F000929F800D112481838B8184FB992790F930
:100600008F70929F800D112482838C81382F3295B8
:100610003F708F7090E0329F800D911D1124948364
:1006200083830F900F900F900F90DF91CF911F91C8
:100630000F9108950F931F93CF93DF9300D000D0B5
:10064000CDB7DEB78B019C011092B90080E492E433
:10065000AFE0B0E0801B910BA20BB30BAC01BD016E
:1006600084E0440F551F661F771F8A95D1F7498391
:100670005A836B837C83A901980193E0220F331F77
:10068000441F551F9A95D1F769817A818B819C818E
:100690000E94F10B2093B8000F900F900F900F90D5
:1006A000DF91CF911F910F91089584E98093BC0051
:1006B0008091BC0084FDFCCF08958093BB0084E84A
:1006C0008093BC008091BC0087FFFCCF0895CF933E
:1006D000DF93CDB7DEB72A970FB6F894DEBF0FBE13
:1006E000CDBF182F439A8CE492E00E9422084AE082
:1006F000BE016F5F7F4F812F90E00E94200FCE01DF
:1007000001960E9422088CE592E00E94220888E06F
:10071000E82EF12C84E592E017FD02C086E592E018
:100720000E942208110F81E0E81AF10899F788E584
:1007300092E00E9422080E945503FFCF84EA809332
:10074000BC008091BC0087FFFCCF8091B900887FFE
:10075000883029F08091B900887F0E94670381E08A
:10076000089584EA8093BC008091BC0087FFFCCF91
:100770008091B900887F803129F08091B900887F0D
:100780000E94670381E008950E945D038091B90093
:10079000887F883229F08091B900887F0E946703A2
:1007A00081E00895CF93C8E180FDC0E40E945D031D
:1007B0008091B900887FC81729F08091B900887F9F
:1007C0000E94670381E0CF910895882391F084EC23
:1007D0008093BC0090E58091BC0087FFFCCF8091A6
:1007E000B900887F891751F08091B900887F0E94F5
:1007F000670384E88093BC0098E5EDCF81E008951D
:100800001F93CF93DF93182FD62FC42F0E949E03E0
:10081000812F8E7F0E94D2038D2F0E94C4038C2FC4
:100820000E94C403DF91CF911F910C945503DF9276
:10083000EF92FF920F931F93CF93DF930F92CDB759
:10084000DEB7D82E062F7A01122F0E949E038D2D1F
:100850008E7F0E94D203802F0E94C4031982898157
:10086000811750F00F90DF91CF911F910F91FF9062
:10087000EF90DF900C945503E981EE0DFF2DF11DF3
:1008800080810E94C40389818F5F8983E8CFFF92B2
:100890000F931F93CF93DF93F62E8A01C22FD82F89
:1008A000DE7F0E949E038D2F0E94D2038F2D0E9417
:1008B000C4030E94B1038D2F81600E94D203D0E057
:1008C000DF5F81E0DC1708F080E00E94E5038091A3
:1008D000BB00F80181938F01DC1790F3DF91CF917A
:1008E0001F910F91FF900C9455038F938FB78F93A7
:1008F000809170028160809370028F918FBF8F9181
:1009000018958F938FB78F939F93809190029091BA
:100910009102019690939102809390029F918F9102
:100920008FBF8F91189580916F0280FF1DC08091BD
:1009300073028F5F809373028233B4F0E898209142
:100940009002309191024CE3429FC001439F900D71
:10095000112490937202809371021092910210926E
:100960009002E89A10927302089510927502109204
:1009700074025398549A5B9A5C9A82E08093B00018
:100980001092B1001092B20080937000E9E6F0E09E
:1009900080818B7F8083808188608083E19AE99A5F
:1009A000089580917B0290917A02891710F0891B3B
:1009B0000895805CFCCF80917A028F5F80937A02E9
:1009C00080917A02803411F410927A02E0917A02D6
:1009D000F0E0ED52FD4F808108959C01019729F0D0
:1009E0001092B100E19A30E020E03093750220933C
:1009F0007402E99A0895909177028091780298178D
:100A000091F18091740290917502892B61F5E998BA
:100A100082E090E09093750280937402E0917702F7
:100A2000F0E0EE56FD4F80818093130380917702B2
:100A30008F5F8093770280917702803411F4109257
:100A40007702109276028091B100887F8093B10086
:100A50001092B20080ED8093B30082E08093B100E9
:100A60005C9881E0089580E008952FEF260F2034F0
:100A7000D0F4282FFC01A0917802B0E08191AE560D
:100A8000BD4F8C93809178028F5F80937802809124
:100A90007802803411F4109278028E2F821B861710
:100AA00050F30C94FB0480E008951F921FB61F9230
:100AB00011248F939F9380917402909175028230DC
:100AC0009105B1F0E99881E090E0909375028093F0
:100AD0007402109279028091B100887F8093B100F6
:100AE0001092B20088E68093B30082E08093B10058
:100AF0009F918F911F901FBE1F9018951F920F926C
:100B00000FB60F9211242F933F934F935F936F93E0
:100B10007F938F939F93AF93BF93EF93FF938091B6
:100B20007402909175028130910509F075C0209191
:100B30007902211120C04B9B15C090E080E00E94FB
:100B4000ED04FF91EF91BF91AF919F918F917F91B4
:100B50006F915F914F913F912F910F900FBE0F902A
:100B60001F90189580ED8093B300809179028F5F7C
:100B700080937902E6CF20917902222319F1209106
:100B800079022930F8F44B9B0EC0409179022091F4
:100B9000D2024150550B01C0880F4A95EAF7822BCB
:100BA0008093D202E2CF409179022091D20241504B
:100BB000550B02C0880F991F4A95E2F780959095D2
:100BC0008223EECF809179028930C1F480917B023B
:100BD0008F5F80937B0280917B02803411F41092AE
:100BE0007B02E0917B02F0E08091D202ED52FD4F5A
:100BF000808381E090E00E94ED04B7CF809179027C
:100C00008E3009F0B2CF10927502109274020E94D9
:100C1000FB04811196CF91CF80917402909175025F
:100C2000029709F08ECF809176028091760288300B
:100C3000A8F4809113032091760290E002C095956C
:100C400087952A95E2F780FF02C05C9A01C05C9804
:100C5000809176028F5F8093760273CF80917602C7
:100C6000883099F3809176028A3091F790E080E0A5
:100C70000E94ED040E94FB0464CF4F925F926F923A
:100C80007F92AF92BF92DF92EF92FF920F931F93EA
:100C9000CF93DF93CDB7DEB72A970FB6F894DEBFB8
:100CA0000FBECDBFD62EE72EF82E9A878A01298354
:100CB000262F372F482F592FD8016D917D918D9177
:100CC0009C910E94180E18160CF4C6C0B981EB2F27
:100CD000F0E0E150F04CEE0FFF1FEE0FFF1FE00FB2
:100CE000F11F2D2D3E2D4F2D5A85608171818281FE
:100CF00093810E94B90C87FDB4C01986F985AF2E87
:100D0000B12C84E0F89FF0011124E00FF11F8081E5
:100D10009181A281B3818D839E83AF83B8879C012B
:100D2000AD01D982EA82FB829A859C8369817A81AE
:100D30008B819C810E94180E1816ACF12D813E818A
:100D40004F81588569817A818B819C810E94B90C81
:100D500081112DC09985892F90E0B0E0A0E08983B2
:100D60009A83AB83BC83BC01CD010E94660D69836D
:100D70007A838B839C8369817A818B819C812A967B
:100D80000FB6F894DEBF0FBECDBFDF91CF911F919C
:100D90000F91FF90EF90DF90BF90AF907F906F909A
:100DA0005F904F900895E985EF5FE987A7CFC50170
:100DB0008150904C880F991F880F991F080F191F99
:100DC000D8014D905D906D907C90A3019201D982E5
:100DD000EA82FB82BA85BC8369817A818B819C819E
:100DE0000E944C0C8B018A879987A30192016D8127
:100DF0007E818F8198850E944C0C9B01AC010983F8
:100E00001A83EA85EB83F985FC8369817A818B817A
:100E10009C810E94BE0C8B0189879D8381E0A81A6A
:100E2000B108C501BB0CAA0BBB0B89839A83AB83AA
:100E3000BC83BC01CD010E94680D9B01AC010983FC
:100E40001A8399859B83AD81AC8369817A818B817B
:100E50009C810E944D0C8BCF61EE7AEF87EC92EC77
:100E600086CF61EE7AEF87EC92E481CFCF92DF926A
:100E7000EF92FF920F931F93CF93DF9300D000D098
:100E800000D0CDB7DEB781E00E9436019C01990FFA
:100E9000440B550B29833A834B835C83CA01B90108
:100EA0000E94680D2AE03EEF4BE95BE369837A8399
:100EB0008B839C8369817A818B819C810E941D0E2A
:100EC0008B018E839D83209140023091410240919D
:100ED00042025091430269831A838B839C83698108
:100EE0007A818B819C810E941D0E6B017C0198018F
:100EF0004E815D816AE077ED8BE990E40E944C0CB5
:100F00009B01AC01C982DA82EB82FC8269817A8121
:100F10008B819C810E94BE0C20E540E051E06983FA
:100F20007A838B839C8369817A818B819C810E94E7
:100F30003D0620917C0230917D0240917E025091CD
:100F40007F0269837A838B839C8369817A818B8119
:100F50009C810E944D0CF62FE72F462F572FBC0186
:100F600040937C0250937D0260937E0270937F02D7
:100F700020918002309181022F5F3F4F3093810298
:100F800020938002203D374084F120E030E04AEF9A
:100F900054E4F983EA838B839C8369817A818B8112
:100FA0009C810E94BE0C2DEC3CEC4CEA50E4698321
:100FB0007A838B839C8369817A818B819C810E9457
:100FC0004D0C609314037093150380931603909354
:100FD0001703109281021092800210927C021092EC
:100FE0007D0210927E0210927F0226960FB6F89430
:100FF000DEBF0FBECDBFDF91CF911F910F91FF904C
:10100000EF90DF90CF9008959093C5008093C40037
:1010100088E08093C10086E08093C200089590919B
:10102000C00095FFFCCF8093C60008958091C0005A
:1010300087FFFCCF8091C60008958F938091C600F2
:101040008F911895CF93DF93EC018991811103C0A3
:10105000DF91CF9108950E940F08F7CF0E942208D8
:101060008AE00C940F08CF93DF93EC01FE0184918A
:10107000882321F00E940F082196F8CFDF91CF91AD
:1010800008950E9433088AE00C940F086AE00E94D9
:10109000E50B8295807F890F08958A3014F4805D76
:1010A0000895895C0895982F80ED890F8A3040F06B
:1010B0008FEB890F863018F489EC890F089580E052
:1010C0000895AF92BF92CF92DF92EF92FF920F936B
:1010D0001F93CF93DF938C01B62EA62ED0E0C0E0F5
:1010E000E62EF12C8B2D8A19082E000C990B8E15EB
:1010F0009F0564F0CE01DF91CF911F910F91FF907A
:10110000EF90DF90CF90BF90AF900895AA9420E029
:10111000CC24C394D12C4A2D50E0622F022E000C17
:10112000770B6417750784F0800F911FFC01808195
:101130000E945308682FA60164039001659F300D3B
:101140001124C20FD31FCECF34E0CC0CDD1C3A9556
:10115000E1F72F5FE2CFFC0190E381918E3209F439
:1011600008958032D1F7DF0111979C93F6CF21E8E3
:1011700034E045EB5FE36091440270914502809159
:101180004602909147020E941D0E462F572FBC0128
:1011900040931C0350931D0360931E0370931F0321
:1011A0007058409318035093190360931A03709377
:1011B0001B0308954F925F926F927F928F929F923E
:1011C000AF92BF92CF92DF92EF92FF920F931F9355
:1011D000CF93DF93CDB7DEB728970FB6F894DEBF75
:1011E0000FBECDBF69837A838B839C8329013A012B
:1011F000ED82FE820F8318878A2C9B2C5601298151
:101200003A814B815C8124193509460957098B8D38
:101210009C8DAD8DBE8D7C018D01E818F9080A0901
:101220001B09C801B7010E94D50B2D813E814F815A
:10123000588524193509460957090E94130CDA010B
:10124000C901880D991DAA1DBB1DBC01CD012896A1
:101250000FB6F894DEBF0FBECDBFDF91CF911F91C7
:101260000F91FF90EF90DF90CF90BF90AF909F9045
:101270008F907F906F905F904F9008954F925F9204
:101280006F927F928F929F92AF92BF92CF92DF9296
:10129000EF92FF92CF93DF9300D000D000D00F9257
:1012A000CDB7DEB780E00E9436018D839E836091CA
:1012B00018037091190380911A0390911B030E94E7
:1012C000300D6B017C018090480290904902092CFE
:1012D000000CAA08BB0860911C0370911D0380914B
:1012E0001E0390911F030E94300D9B01AC012C192D
:1012F0003D094E095F094D805E80B0E0A0E03D01F0
:10130000481859086A087B08C301B2010E94D50B2E
:1013100020914A0230914B02032E000C440B550BD6
:10132000281939094A095B090E94130CCA01B9013D
:101330006C0D7D1D8E1D9F1D69837A838B839C831D
:101340000E94680D9B01AC0169837A838B839C8327
:1013500069817A818B819C810E941D0E20918A0275
:1013600030918B0240918C0250918D0269837A8377
:101370008B839C8369817A818B819C810E944D0C37
:101380007B018F839D83AB01BC0140938A02509304
:101390008B0260938C0270938D02809182029091F7
:1013A0008302A0918402B09185029C01AD012F5F60
:1013B0003F4F4F4F5F4F29833A834B835C8320938A
:1013C000820230938302409384025093850280917D
:1013D0006F0280FF0CC080918E0290918F02019667
:1013E00089319105CCF490938F0280938E022796D9
:1013F0000FB6F894DEBF0FBECDBFDF91CF91FF9047
:10140000EF90DF90CF90BF90AF909F908F907F90A4
:101410006F905F904F90089510928F0210928E02FD
:1014200069817A818B819C810E94660D9B01AC0150
:10143000E982FA824F804B825D805C8269817A8189
:101440008B819C810E94BE0C69837A838B839C83F1
:1014500069817A818B819C810E94900E60938602C3
:10146000709387028093880290938902109282027F
:1014700010928302109284021092850210928A02C6
:1014800010928B0210928C0210928D02B0CFCDB7C9
:10149000DEB7C956D1090FB6F894DEBF0FBECDBF77
:1014A00052985A9A87E690E00E9404080E94B70872
:1014B0008FEF0E9408011092850010928400109214
:1014C00080008CE08093810081EE94E0909389000D
:1014D0008093880080916F00826080936F0080917C
:1014E0006900826080936900809169008E7F80939B
:1014F0006900E89A78943B9A60EA76E881E090E0A7
:101500000E941A030E94250282E8A5968FAFA59734
:1015100080EEA6968FAFA69722E0AE014C595F4FA2
:1015200061E080E90E94170410E000E08091700201
:1015300080FF0AC0809170028E7F8093700280913C
:101540006F02816080936F020E943E090E946301D6
:101550000E9436070E94930480916F0280FF1FC192
:101560000F5F1F4F0436110508F419C16EE572E0D4
:10157000CE0101960E940E0F609186027091870243
:1015800080918802909189020E94370D362F272F73
:101590004AE0BE016F5B7F4F832F922F0E94150F91
:1015A000BE016F5B7F4FCE0101960E94030F62E583
:1015B00072E0CE0101960E94030F80916902909122
:1015C0006A02A0916B02B0916C028E010F5B1F4FFB
:1015D00022E040E0BC01CD010E94E50EB801CE0141
:1015E00001960E94030F62E572E0CE0101960E940F
:1015F000030F8091140390911503A0911603B091ED
:101600001703AA968CAF9DAFAEAFBFAFAA9721E0EC
:1016100040E0BC01CD010E94E50EB801CE0101966B
:101620000E94030F62E572E0CE0101960E94030F53
:101630004AE0B80180917102909172020E94200FDD
:10164000B801CE0101960E94030F62E572E0CE015F
:1016500001960E94030FCE01815A9F4F0E94920271
:10166000CE01865A9F4F0E94DE02A2968FADA297AE
:101670004AE0BE016B5A7F4F082E000C990B0E9466
:10168000150FBE016B5A7F4FCE0101960E94030FCA
:1016900060E672E0CE0101960E94030FA1968FAD25
:1016A000A1974AE0BE016B5A7F4F082E000C990BA0
:1016B0000E94150FBE016B5A7F4FCE0101960E940A
:1016C000030F60E672E0CE0101960E94030FA09620
:1016D0008FADA0974AE0BE016B5A7F4F082E000CD9
:1016E000990B0E94150FBE016B5A7F4FCE010196D8
:1016F0000E94030F62E572E0CE0101960E94030F83
:101700006C968FAD6C974AE0BE016B5A7F4F082EE6
:10171000000C990B0E94150FBE016B5A7F4FCE0132
:1017200001960E94030F62E672E0CE0101960E94CC
:10173000030F6D968FAD6D974AE0BE016B5A7F4FD8
:10174000082E000C990B0E94150FBE016B5A7F4F9B
:10175000CE0101960E94030F62E672E0CE0101966F
:101760000E94030F4AE0BE016B5A7F4F6F968EAD09
:101770009FAD6F970E94150FBE016B5A7F4FCE0130
:1017800001960E94030F6CE572E0CE0101960E9463
:10179000030FCE0101960E94220810E000E0809124
:1017A0006F028E7F80936F02C1CEDB018F939F9378
:1017B0000E94320CBF91AF91A29F800D911DA39FFB
:1017C000900DB29F900D11240895991B79E004C0EB
:1017D000991F961708F0961B881F7A95C9F7809570
:1017E0000895A1E21A2EAA1BBB1BFD010DC0AA1F62
:1017F000BB1FEE1FFF1FA217B307E407F50720F07A
:10180000A21BB30BE40BF50B661F771F881F991FF4
:101810001A9469F760957095809590959B01AC013D
:10182000BD01CF010895052E97FB1EF400940E9480
:101830002A0C57FD07D00E94F10B07FC03D04EF491
:101840000C942A0C50954095309521953F4F4F4F61
:101850005F4F089590958095709561957F4F8F4F5C
:101860009F4F08950E943D0CA59F900DB49F900D31
:10187000A49F800D911D11240895A29FB001B39FD4
:10188000C001A39F700D811D1124911DB29F700D89
:10189000811D1124911D08955058BB27AA270E942D
:1018A000640C0C94DE0D0E94D00D38F00E94D70D10
:1018B00020F039F49F3F19F426F40C94CD0D0EF46A
:1018C000E095E7FB0C94C70DE92F0E94EF0D58F34C
:1018D000BA17620773078407950720F079F4A6F515
:1018E0000C94110E0EF4E0950B2EBA2FA02D0B01C7
:1018F000B90190010C01CA01A0011124FF27591B55
:1019000099F0593F50F4503E68F11A16F040A22F5A
:10191000232F342F4427585FF3CF469537952795CB
:10192000A795F0405395C9F77EF41F16BA0B620BCA
:10193000730B840BBAF09150A1F0FF0FBB1F661F11
:10194000771F881FC2F70EC0BA0F621F731F841F54
:1019500048F4879577956795B795F7959E3F08F07A
:10196000B0CF9395880F08F09927EE0F979587953C
:1019700008950E94A30D08F481E008950E94D20CFE
:101980000C94DE0D0E94D70D58F00E94D00D40F04F
:1019900029F45F3F29F00C94C70D51110C94120EDD
:1019A0000C94CD0D0E94EF0D68F39923B1F35523EC
:1019B00091F3951B550BBB27AA2762177307840762
:1019C00038F09F5F5F4F220F331F441FAA1FA9F3F8
:1019D00035D00E2E3AF0E0E832D091505040E695E6
:1019E000001CCAF72BD0FE2F29D0660F771F881F47
:1019F000BB1F261737074807AB07B0E809F0BB0B3A
:101A0000802DBF01FF2793585F4F3AF09E3F51054D
:101A100078F00C94C70D0C94120E5F3FE4F3983EDF
:101A2000D4F3869577956795B795F7959F5FC9F736
:101A3000880F911D9695879597F90895E1E0660FB7
:101A4000771F881FBB1F621773078407BA0720F030
:101A5000621B730B840BBA0BEE1F88F7E095089599
:101A60000E94370D6894B1110C94120E08950E94D3
:101A7000F70D88F09F5798F0B92F9927B751B0F01C
:101A8000E1F0660F771F881F991F1AF0BA95C9F702
:101A900014C0B13091F00E94110EB1E008950C9481
:101AA000110E672F782F8827B85F39F0B93FCCF334
:101AB000869577956795B395D9F73EF4909580957F
:101AC000709561957F4F8F4F9F4F0895E89409C09F
:101AD00097FB3EF490958095709561957F4F8F4F61
:101AE0009F4F9923A9F0F92F96E9BB279395F69577
:101AF000879577956795B795F111F8CFFAF4BB0FF5
:101B000011F460FF1BC06F5F7F4F8F4F9F4F16C058
:101B1000882311F096E911C0772321F09EE8872FE2
:101B2000762F05C0662371F096E8862F70E060E09E
:101B30002AF09A95660F771F881FDAF7880F969517
:101B4000879597F90895990F0008550FAA0BE0E8BB
:101B5000FEEF16161706E807F907C0F0121613066F
:101B6000E407F50798F0621B730B840B950B39F4AF
:101B70000A2661F0232B242B252B21F408950A2615
:101B800009F4A140A6958FEF811D811D089597F955
:101B90009F6780E870E060E008959FEF80EC089513
:101BA00000240A941616170618060906089500243C
:101BB0000A9412161306140605060895092E0394B6
:101BC000000C11F4882352F0BB0F40F4BF2B11F42A
:101BD00060FF04C06F5F7F4F8F4F9F4F089557FD89
:101BE0009058440F551F59F05F3F71F04795880F8B
:101BF00097FB991F61F09F3F79F087950895121622
:101C000013061406551FF2CF4695F1DF08C01616CD
:101C100017061806991FF1CF86957105610508947E
:101C20000895E894BB2766277727CB0197F9089595
:101C30000E94A30D08F48FEF08950E94300E0C94BB
:101C4000DE0D0E94D00D38F00E94D70D20F09523B4
:101C500011F00C94C70D0C94CD0D11240C94120EA0
:101C60000E94EF0D70F3959FC1F3950F50E0551F43
:101C7000629FF001729FBB27F00DB11D639FAA27E1
:101C8000F00DB11DAA1F649F6627B00DA11D661F30
:101C9000829F2227B00DA11D621F739FB00DA11D51
:101CA000621F839FA00D611D221F749F3327A00D0B
:101CB000611D231F849F600D211D822F762F6A2FA7
:101CC00011249F5750409AF0F1F088234AF0EE0F0C
:101CD000FF1FBB1F661F771F881F91505040A9F739
:101CE0009E3F510580F00C94C70D0C94120E5F3F7F
:101CF000E4F3983ED4F3869577956795B795F79575
:101D0000E7959F5FC1F7FE2B880F911D96958795EC
:101D100097F9089519F416F40C94CD0D0C94D00E87
:101D20000E94F70DB8F39923C9F3B6F39F57550BEB
:101D300087FF0E94DE0E0024A0E640EA9001805852
:101D40005695979528F4805C660F771F881F20F0C2
:101D500026173707480730F4621B730B840B2029C2
:101D600031294A2BA69517940794202531254A2717
:101D700058F7660F771F881F20F026173707480788
:101D800030F4620B730B840B200D311D411DA095A7
:101D900081F7B901842F9158880F969587950895FA
:101DA0009F3F31F0915020F4879577956795B795CF
:101DB000880F911D9695879597F9089591505040F9
:101DC000660F771F881FD2F70895EF920F931F9326
:101DD000CF93DF93E80134E047FD34E1042E000C9B
:101DE000550B57FF03C0519541955109E32E022F22
:101DF000242FAE010E943A0FCE01DF91CF911F91A7
:101E00000F91EF900895FB01DC010D900020E9F7A0
:101E1000119701900D920020E1F70895FB01DC017C
:101E200001900D920020E1F70895BB274A3031F46C
:101E3000992322F4BDE2909581959F4F0C94210F38
:101E4000BB27FB015527AA27880F991FAA1FA41794
:101E500010F0A41B83955051B9F7A05DAA3308F088
:101E6000A95DA193009779F7B111B1931192CB01BC
:101E70000C947411A9E0B0E0E0E4FFE00C948A1146
:101E80006A01F22EB02E102F0BE30B1508F41BE3A2
:101E90001F5F012F27E0AE014F5F5F4F0E949C1034
:101EA000BC018981982F99709130C9F19BE2E1FCC6
:101EB00004C09E2D9170E0FC90E25E2D5071E82FE1
:101EC000E87083FF48C083E0911184E0EF2DE81BA8
:101ED0008F1508F0E0E0552371F1992319F0D60130
:101EE0009D936D01C6010396E2FE29C02EE4D60142
:101EF0002C9331E411963C93119712962C932E2F2C
:101F0000382F492F50E221111FC0E80FF92FF11D82
:101F100010828EEF9FEF2996ECE00C94A6119DE2C3
:101F2000CCCFD9014D9381509D018111FACFCE0EB6
:101F3000D11CE0E0D2CF8E2F960140E2F6CF2EE604
:101F4000D6012C9331E6D6CFA32FB42F5D93215029
:101F50003A2F4B2FD8CF482F447082FF41C083E0E7
:101F6000911184E08F1510F4EF2DE81B552359F1E2
:101F7000992319F0D6019D936D01C6010396E2FEE7
:101F800026C029E4D6012C932EE411962C931197A8
:101F900026E412962C932E2F382F492F50E222231D
:101FA00009F4B3CFA32FB42F5D9321503A2F4B2FB9
:101FB000F6CFD9014D9381509D018111FACFCE0EFC
:101FC000D11CE0E0D5CF8E2F960140E2F6CF29E676
:101FD000D6012C932EE611962C93119726E6D9CF95
:101FE0009B0177FF02C030E020E0A1E0B0E091115A
:101FF00002C0B0E0A0E0F9013196AE0FBF1F8B2CFC
:10200000912CBB20F1F05401EFEFAE1ABE0AAA0DDD
:10201000BB1DFA161B0619F014F04F2D4A1B511167
:1020200045C0E3FC08C07601A42FB0E2A1110CC0AA
:10203000C40ED11C40E091113BC0D601942F50E357
:102040000AC0B12CA12CE3CFF701B1937F01A150BD
:10205000EDCF5D9391509111FCCFC40ED11C40E0A7
:102060002DC001E03AC050E354C06217730739F441
:10207000A63320F4A53319F4B11101C051E3D60100
:102080005C93242F382F592F60E2211108C0480F8C
:10209000592F511DFA01108290E080E03CCFE32FD0
:1020A000F52F619321503E2F5F2FEFCF992331F011
:1020B000D6019D936D01552309F4BFCF012F060F63
:1020C000AA81B82FB07184FF03C0A13309F4015075
:1020D00010163CF6093008F008E0FB01E01BF1099E
:1020E0008F01EE24FF24E818F9088EE2B82E62175B
:1020F00073070CF4B8CF021713070CF0B4CFFB0131
:10210000E21BF30B81E090E08C0F9D1FE80FF91F9D
:10211000518121503109C60101962E153F050CF45D
:10212000A4CFF60150832F3F320721F4C601029657
:10213000F601B1826C01DBCF283008F027E03327AD
:10214000DA01990F311D87FD9160009661057105D7
:1021500039F432602E5F3D9330E32A95E1F708951C
:102160009F3F30F080387105610509F03C5F3C5FAE
:102170003D93913008F08068911DDF93CF931F93BA
:102180000F93FF92EF92192F987F9695E92F9695CE
:102190009695E90FFF27EE53FF4F99273327EE243B
:1021A000FF24A701E70105900894079428F4360F4F
:1021B000E71EF81E491F511D660F771F881F991FC4
:1021C0000694A1F70590079428F4E70EF81E491F1E
:1021D000561FC11D770F881F991F661F0694A1F710
:1021E0000590079428F4F80E491F561FC71FD11DEC
:1021F000880F991F661F771F0694A1F70590079413
:1022000020F4490F561FC71FD81F990F661F771F4D
:10221000881F0694A9F784911095177041F0D69500
:10222000C79557954795F794E7941A95C1F7E8E64F
:10223000F0E0689415901591359165919591059010
:102240007FE27395E118F10A430B560BC90BD009D5
:10225000C0F7E10CF11E431F561FC91FD01D7EF4AD
:10226000703311F48A95E6CFE894015030F0080FEE
:102270000AF40027021708F4202F2395022F7A333F
:1022800028F079E37D932A95E9F710C07D932A958C
:1022900089F6069497956795379517951794E118E1
:1022A000F10A430B560BC90BD00998F023957E9188
:1022B00073957A3308F070E37C932013B8F77E911E
:1022C00070617D9330F0839571E37D9370E32A957F
:1022D000E1F71124EF90FF900F911F91CF91DF91C3
:1022E000992787FD90950895DC01FC01672F719176
:1022F0007723E1F7329704C07C916D9370836291EC
:10230000AE17BF07C8F308952F923F924F925F9286
:102310006F927F928F929F92AF92BF92CF92DF92F5
:10232000EF92FF920F931F93CF93DF93CDB7DEB75A
:10233000CA1BDB0B0FB6F894DEBF0FBECDBF0994EE
:102340002A88398848885F846E847D848C849B8445
:10235000AA84B984C884DF80EE80FD800C811B8153
:10236000AA81B981CE0FD11D0FB6F894DEBF0FBE82
:0A237000CDBFED010895F894FFCFF2
:10237A000000C842AEC7C8425C8FC9420A57CA4267
:10238A00B81ECB4266E6CB4214AECC42C375CD42F0
:10239A00713DCE421F05CF42CDCCCF427B94D04275
:1023AA00295CD142D723D24285EBD24233B3D342FE
:1023BA00E17AD4428F42D5423D0AD642CDCCD642AA
:1023CA007B94D742295CD842D723D94285EBD9429C
:1023DA0033B3DA42C375DB42713DDC421F05DD428D
:1023EA00CDCCDD427B94DE420A57DF42B81EE04282
:1023FA0066E6E042F6A8E142A470E2425238E342BD
:10240A000000E4428FC2E4423D8AE542CD4CE642F6
:10241A007B14E74229DCE742B89EE8426666E94255
:10242A00F628EA42A4F0EA4252B8EB42E17AEC42D8
:10243A008F42ED421F05EE42CDCCEE425C8FEF4259
:10244A000A57F0429A19F14248E1F142D7A3F242FF
:10245A00856BF342142EF442A4F0F44252B8F542CA
:10246A00E17AF6428F42F7421F05F842AEC7F842B8
:10247A005C8FF942EC51FA427B14FB4229DCFB42A5
:10248A00B89EFC424861FD42F628FE4285EBFE42B8
:10249A0014AEFF4252380043299C004371FD0043A9
:1024AA00B85E014300C00143482102431F8502432D
:1024BA0000007A44000061430C01EE024572726F1B
:1024CA00723A2000310030000A46494E0A002300C1
:0424DA003A002F0095
:00000001FF
