:100000000C94B1000C945C030C9430040C94CE005E
:100010000C94CE000C94CE000C94CE000C94590499
:100020000C94CE000C94CE000C94CE000C94500393
:100030000C94CE000C94CE000C94CE000C94CE0008
:100040000C94CE000C94CE000C94F8060C94CE00C8
:100050000C94CE000C94CE000C94CE000C94CE00E8
:100060000C94CE000C94CE0000407A10F35A00A0FD
:10007000724E18090010A5D4E80000E87648170071
:1000800000E40B54020000CA9A3B000000E1F505B1
:10009000000080969800000040420F000000A086FB
:1000A00001000000102700000000E803000000002D
:1000B0006400000000000A000000000001000000D1
:1000C00000002C76D888DC674F0823DFC1DFAE59EB
:1000D000E1B1B796E5E3E453C63AE651997696E87E
:1000E000E6C28426EB898C9B62ED407C6FFCEFBC02
:1000F0009C9F40F2BAA56FA5F490055A2AF75C932D
:100100006B6CF9676DC11BFCE0E40D47FEF520E662
:10011000B500D0ED902E0300943577050080841E45
:10012000080000204E0A000000C80C333333330FA0
:10013000986E12831141EF8D2114893BE65516CF3D
:10014000FEE6DB18D1844B381BF77C1D901DA4BB49
:10015000E424203284725E228100C9F124ECA1E5FE
:100160003D2711241FBECFEFD8E0DEBFCDBF12E088
:10017000A0E0B1E0E0E0FFE102C005900D92A23501
:10018000B107D9F723E0A2E5B2E001C01D92AE307D
:10019000B207E1F70E94B1080C947E0F0C940000A6
:1001A000ECE7F0E09081907F8F70982B908308951A
:1001B000ECE7F0E090819F7340E4849F900111246C
:1001C000922B90830895EAE7F0E09081987F982B36
:1001D00090830895EAE7F0E0808180688083089545
:1001E000EAE7F0E080818F7780830895811106C06F
:1001F00080917C008F7D80937C00089580917C00AD
:100200008062F9CF809179000895809178000895F7
:10021000CF93C82F81E00E94D80087E00E94E300BE
:1002200080917A00CF3F61F0806280937A00809164
:100230007B00887F8C2B80937B00CF910C94EA000D
:100240008F7D80937A00F9CF95B79E7F95BF0E94EE
:10025000D000EAE7F0E080818064808308950E9406
:10026000240180917A0086FDFCCF089590917A0058
:1002700095FD16C00E942F018091780090917C001E
:100280002091790095FF1BC094E0299F90011124D3
:100290008295869586958370820F932F911D089580
:1002A00080917A00806180937A0080917A0084FF47
:1002B000FCCF80917A00806180937A00DDCF30E0BE
:1002C000322F2227E9CFEF92FF920F931F93CF9304
:1002D000DF9300D000D000D0CDB7DEB722E0AE0172
:1002E0004F5F5F4F60E080E90E942203898190E0C8
:1002F000982F88272A81820F911D9C01990F440B0A
:10030000550B2B833C834D835E83CA01B9010E9448
:100310002B0B2FE632E143E059E36B837C838D8323
:100320009E836B817C818D819E810E94E00B9B016D
:10033000AC016B837C838D839E836B817C818D81FB
:100340009E810E94100A9B01AC016B837C838D838C
:100350009E836B817C818D819E810E94E00B209128
:1003600053023091540240915502509156026B83D2
:100370007C838D839E836B817C818D819E810E9495
:10038000100A7B018C01AB01BC01409353025093D6
:100390005402609355027093560280915B029091D3
:1003A0005C02019690935C0280935B0220915D0257
:1003B00020FF3EC0209152022F5F2093520229312C
:1003C000BCF19C0150E040E02B833C834D835E8375
:1003D000CA01B9010E94290B9B01AC01EB82FC828E
:1003E0000D831E836B817C818D819E810E94810A99
:1003F0006B837C838D839E836B817C818D819E81C9
:100400000E94530C609357027093580280935902D4
:1004100090935A021092520210925C0210925B0268
:1004200010925302109254021092550210925602EA
:1004300026960FB6F894DEBF0FBECDBFDF91CF91E9
:100440001F910F91FF90EF9008950F931F93CF93FB
:10045000DF9300D000D0CDB7DEB78B019C011092A6
:10046000B90080E492E4AFE0B0E0801B910BA20BF6
:10047000B30BAC01BD0184E0440F551F661F771F0D
:100480008A95D1F749835A836B837C83A9019801AC
:1004900093E0220F331F441F551F9A95D1F76981AE
:1004A0007A818B819C810E94B4092093B8000F90BF
:1004B0000F900F900F90DF91CF911F910F910895A2
:1004C00084E98093BC008091BC0084FDFCCF08953A
:1004D00084EA8093BC008091BC0087FFFCCF8091B0
:1004E000B900887F883031F08091B9000E946002A5
:1004F00080E0089581E0089584EA8093BC008091B3
:10050000BC0087FFFCCF8091B900887F803131F03B
:100510008091B9000E94600280E0089581E0089512
:100520008093BB0084E88093BC008091BC0087FF6F
:10053000FCCF08950E9490028091B900887F883294
:1005400031F08091B9000E94600280E0089581E05E
:100550000895CF93C8E180FDC0E40E94900280918D
:10056000B900887FC81739F08091B9000E946002F5
:1005700080E0CF91089581E0FCCF882399F084EC4E
:100580008093BC0090E58091BC0087FFFCCF8091F8
:10059000B900887F891759F08091B9000E946002E4
:1005A00080E0089584E88093BC0098E5ECCF81E07A
:1005B00008950C9460021F93CF93DF93182FD62FCA
:1005C000C42F0E946802812F8E7F0E94A9028D2F66
:1005D0000E949A028C2F0E949A02DF91CF911F9164
:1005E0000C946002DF92EF92FF920F931F93CF93D0
:1005F000DF930F92CDB7DEB7D82E062F7A01122FD8
:100600000E9468028D2D8E7F0E94A902802F0E9479
:100610009A0219828981811750F00F90DF91CF9152
:100620001F910F91FF90EF90DF900C946002E98191
:10063000EE0DFF2DF11D80810E949A0289818F5F4E
:100640008983E8CFFF920F931F93CF93DF93F62E0A
:100650008A01C22FD82FDE7F0E9468028D2F0E9450
:10066000A9028F2D0E949A020E947C028D2F816028
:100670000E94A902D0E0DF5F81E0DC1708F080E093
:100680000E94BD028091BB00F80181938F01DC17AD
:1006900090F3DF91CF911F910F91FF900C94600226
:1006A0008F938FB78F9380915E02816080935E02FB
:1006B0008F918FBF8F9118958F938FB78F939F9343
:1006C00080917E0290917F02019690937F028093A9
:1006D0007E029F918F918FBF8F91189580915D02BF
:1006E00080FF1DC0809161028F5F80936102823321
:1006F000B4F0E89820917E0230917F024CE3429F53
:10070000C001439F900D11249093600280935F027B
:1007100010927F0210927E02E89A10926102089570
:1007200010926302109262025398549A5B9A5C9AF8
:1007300082E08093B0001092B1001092B2008093DA
:100740007000E9E6F0E080818B7F808380818860A3
:100750008083E19AE99A08958091690290916802F4
:10076000891710F0891B0895805CFCCF8091680286
:100770008F5F8093680280916802803411F4109238
:100780006802E0916802F0E0EF53FD4F8081089528
:100790009C01019729F01092B100E19A30E020E02D
:1007A0003093630220936202E99A08959091650262
:1007B00080916602981791F1809162029091630294
:1007C000892B61F5E99882E090E090936302809331
:1007D0006202E0916502F0E0E058FD4F8081809375
:1007E0000103809165028F5F8093650280916502AD
:1007F000803411F410926502109264028091B1006D
:10080000887F8093B1001092B20080ED8093B30096
:1008100082E08093B1005C9881E0089580E00895C3
:100820002FEF260F2034D0F4282FFC01A091660270
:10083000B0E08191A058BD4F8C93809166028F5F8C
:100840008093660280916602803411F410926602F1
:100850008E2F821B861750F30C94D60380E00895E8
:100860001F921FB61F9211248F939F938091620253
:100870009091630282309105B1F0E99881E090E0B7
:100880009093630280936202109267028091B1009C
:10089000887F8093B1001092B20088E68093B30005
:1008A00082E08093B1009F918F911F901FBE1F9097
:1008B00018951F920F920FB60F9211242F933F930A
:1008C0004F935F936F937F938F939F93AF93BF9358
:1008D000EF93FF93809162029091630281309105C2
:1008E00009F075C020916702211120C04B9B15C0F3
:1008F00090E080E00E94C803FF91EF91BF91AF911B
:100900009F918F917F916F915F914F913F912F9127
:100910000F900FBE0F901F90189580ED8093B3003D
:10092000809167028F5F80936702E6CF2091670214
:10093000222319F1209167022930F8F44B9B0EC055
:10094000409167022091C0024150550B01C0880FB1
:100950004A95EAF7822B8093C002E2CF409167026A
:100960002091C0024150550B02C0880F991F4A9533
:10097000E2F7809590958223EECF809167028930CF
:10098000C1F4809169028F5F80936902809169024E
:10099000803411F410926902E0916902F0E08091D4
:1009A000C002EF53FD4F808381E090E00E94C803B6
:1009B000B7CF809167028E3009F0B2CF10926302F8
:1009C000109262020E94D603811196CF91CF80913E
:1009D000620290916302029709F08ECF80916402C7
:1009E000809164028830A8F4809101032091640210
:1009F00090E002C0959587952A95E2F780FF02C0A6
:100A00005C9A01C05C98809164028F5F809364025D
:100A100073CF80916402883099F3809164028A30A8
:100A200091F790E080E00E94C8030E94D60364CF53
:100A30004F925F926F927F92AF92BF92DF92EF924E
:100A4000FF920F931F93CF93DF93CDB7DEB72A9713
:100A50000FB6F894DEBF0FBECDBFD62EE72EF82E10
:100A60009A878A012983262F372F482F592FD8019B
:100A70006D917D918D919C910E94DB0B18160CF469
:100A8000C6C0B981EB2FF0E0E150F04CEE0FFF1F34
:100A9000EE0FFF1FE00FF11F2D2D3E2D4F2D5A851C
:100AA00060817181828193810E947C0A87FDB4C03C
:100AB0001986F985AF2EB12C84E0F89FF00111243E
:100AC000E00FF11F80819181A281B3818D839E838C
:100AD000AF83B8879C01AD01D982EA82FB829A85F7
:100AE0009C8369817A818B819C810E94DB0B181623
:100AF000ACF12D813E814F81588569817A818B814E
:100B00009C810E947C0A81112DC09985892F90E0DB
:100B1000B0E0A0E089839A83AB83BC83BC01CD01A4
:100B20000E94290B69837A838B839C8369817A81F4
:100B30008B819C812A960FB6F894DEBF0FBECDBF85
:100B4000DF91CF911F910F91FF90EF90DF90BF90B9
:100B5000AF907F906F905F904F900895E985EF5F21
:100B6000E987A7CFC5018150904C880F991F880F46
:100B7000991F080F191FD8014D905D906D907C90C2
:100B8000A3019201D982EA82FB82BA85BC83698182
:100B90007A818B819C810E940F0A8B018A879987B9
:100BA000A30192016D817E818F8198850E940F0A39
:100BB0009B01AC0109831A83EA85EB83F985FC83E9
:100BC00069817A818B819C810E94810A8B0189874E
:100BD0009D8381E0A81AB108C501BB0CAA0BBB0B11
:100BE00089839A83AB83BC83BC01CD010E942B0B0C
:100BF0009B01AC0109831A8399859B83AD81AC83EA
:100C000069817A818B819C810E94100A8BCF61EE71
:100C10007AEF87EC92EC86CF61EE7AEF87EC92E484
:100C200081CFCF92DF92EF92FF920F931F93CF93DA
:100C3000DF9300D000D000D0CDB7DEB781E00E94B6
:100C400036019C01990F440B550B29833A834B8342
:100C50005C83CA01B9010E942B0B2AE03EEF4BE9ED
:100C60005BE369837A838B839C8369817A818B813F
:100C70009C810E94E00B8B018E839D83209140021A
:100C800030914102409142025091430269831A839C
:100C90008B839C8369817A818B819C810E94E00B8C
:100CA0006B017C0198014E815D816AE077ED8BE9F3
:100CB00090E40E940F0A9B01AC01C982DA82EB82A8
:100CC000FC8269817A818B819C810E94810A20E06B
:100CD00030E040E450E469837A838B839C836981AC
:100CE0007A818B819C810E940F0A20E540E051E0CF
:100CF00069837A838B839C8369817A818B819C81D0
:100D00000E94180520916A0230916B0240916C029A
:100D100050916D0269837A838B839C8369817A8188
:100D20008B819C810E94100AF62FE72F462F572FA8
:100D3000BC0140936A0250936B0260936C02709303
:100D40006D0220916E0230916F022F5F3F4F309302
:100D50006F0220936E02203D374014F120E030E016
:100D60004AEF54E4F983EA838B839C8369817A8117
:100D70008B819C810E94810A60930203709303031C
:100D8000809304039093050310926F0210926E02F9
:100D900010926A0210926B0210926C0210926D0215
:100DA00026960FB6F894DEBF0FBECDBFDF91CF9170
:100DB0001F910F91FF90EF90DF90CF900895909347
:100DC000C5008093C40088E18093C10086E08093D1
:100DD000C20008959091C00095FFFCCF8093C6009B
:100DE00008958091C00087FFFCCF8091C6000895D0
:100DF0008F938091C6008F911895CF93DF93EC016C
:100E00008991811103C0DF91CF9108950E94EA0674
:100E1000F7CF0E94FD068AE00C94EA06CF93DF9399
:100E2000EC01FE018491882321F00E94EA062196BC
:100E3000F8CFDF91CF9108950E940E078AE00C94BD
:100E4000EA0621E834E045EB5FE3609144027091EB
:100E5000450280914602909147020E94E00B462F86
:100E6000572FBC0140930A0350930B0360930C036C
:100E700070930D03705840930603509307036093DB
:100E800008037093090308954F925F926F927F92C7
:100E90008F929F92AF92BF92CF92DF92EF92FF928A
:100EA0000F931F93CF93DF93CDB7DEB728970FB67D
:100EB000F894DEBF0FBECDBF69837A838B839C839A
:100EC00029013A01ED82FE820F8318878A2C9B2C20
:100ED000560129813A814B815C81241935094609E3
:100EE00057098B8D9C8DAD8DBE8D7C018D01E818D1
:100EF000F9080A091B09C801B7010E94A4092D813C
:100F00003E814F81588524193509460957090E94A9
:100F1000D609DA01C901880D991DAA1DBB1DBC01A6
:100F2000CD0128960FB6F894DEBF0FBECDBFDF917E
:100F3000CF911F910F91FF90EF90DF90CF90BF90D6
:100F4000AF909F908F907F906F905F904F9008959B
:100F50004F925F926F927F928F929F92AF92BF92C9
:100F6000CF92DF92EF92FF92CF93DF9300D000D029
:100F700000D00F92CDB7DEB780E00E9436018D839E
:100F80009E836091060370910703809108039091FE
:100F900009030E94F30A6B017C0180904802909043
:100FA0004902092C000CAA08BB0860910A03709141
:100FB0000B0380910C0390910D030E94F30A9B0197
:100FC000AC012C193D094E095F094D805E80B0E0EF
:100FD000A0E03D01481859086A087B08C301B20126
:100FE0000E94A40920914A0230914B02032E000C6A
:100FF000440B550B281939094A095B090E94D60987
:10100000CA01B9016C0D7D1D8E1D9F1D69837A83F8
:101010008B839C830E942B0B9B01AC0169837A8399
:101020008B839C8369817A818B819C810E94E00BF8
:10103000209178023091790240917A0250917B029E
:1010400069837A838B839C8369817A818B819C817C
:101050000E94100A7B018F839D83AB01BC014093EA
:1010600078025093790260937A0270937B028091A8
:10107000700290917102A0917202B09173029C0172
:10108000AD012F5F3F4F4F4F5F4F29833A834B8313
:101090005C832093700230937102409372025093EC
:1010A000730280915D0280FF0CC080917C02909160
:1010B0007D02019689319105CCF490937D02809355
:1010C0007C0227960FB6F894DEBF0FBECDBFDF912E
:1010D000CF91FF90EF90DF90CF90BF90AF909F9017
:1010E0008F907F906F905F904F90089510927D0247
:1010F00010927C0269817A818B819C810E94290BEC
:101100009B01AC01E982FA824F804B825D805C8258
:1011100069817A818B819C810E94810A69837A83AB
:101120008B839C8369817A818B819C810E94530C83
:1011300060937402709375028093760290937702A5
:101140001092700210927102109272021092730249
:10115000109278021092790210927A0210927B0219
:10116000B0CFCDB7DEB7CA55D1090FB6F894DEBF00
:101170000FBECDBF52985A9A87E690E00E94DF06D4
:101180000E9421078FEF0E940801109285001092A3
:101190008400109280008CE08093810081EE94E0C6
:1011A000909389008093880080916F008260809383
:1011B0006F0080916900826080936900809169006E
:1011C0008E7F80936900E89A0E9490037894579AE2
:1011D00060EA76E881E090E00E94250282E8669667
:1011E0008FAF669780EE67968FAF679722E0AE016C
:1011F0004B5A5F4F61E080E90E94F20210E000E08C
:1012000080915E0280FF0AC080915E028E7F809393
:101210005E0280915D02816080935D020E94A8075A
:101220000E9463010E9411060E946E0380915D027C
:1012300080FF84C00F5F1F4F0436110508F47EC085
:101240006CE472E0CE0101960E94D10C60917402B0
:101250007091750280917602909177020E94FA0A4D
:10126000362F272F4AE0BE016F5B7F4F832F922FCF
:101270000E94D80CBE016F5B7F4FCE0101960E9489
:10128000C60C6EE472E0CE0101960E94C60C8091FD
:10129000570290915802A0915902B0915A028E01C2
:1012A0000F5B1F4F22E040E0BC01CD010E94A80C63
:1012B000B801CE0101960E94C60C6EE472E0CE0128
:1012C00001960E94C60C8091020390910303A091A5
:1012D0000403B09105036B968CAF9DAFAEAFBFAF6B
:1012E0006B9721E040E0BC01CD010E94A80CB80141
:1012F000CE0101960E94C60C6EE472E0CE0101960A
:101300000E94C60C4AE0B80180915F029091600291
:101310000E94E30CB801CE0101960E94C60C60E564
:1013200072E0CE0101960E94C60CCE0101960E9489
:10133000FD068BB180588BB910E000E080915D0212
:101340008E7F80935D025CCFDB018F939F930E9421
:10135000F509BF91AF91A29F800D911DA39F900DA4
:10136000B29F900D11240895A1E21A2EAA1BBB1B57
:10137000FD010DC0AA1FBB1FEE1FFF1FA217B30761
:10138000E407F50720F0A21BB30BE40BF50B661F77
:10139000771F881F991F1A9469F76095709580953B
:1013A00090959B01AC01BD01CF010895052E97FBDF
:1013B0001EF400940E94ED0957FD07D00E94B40965
:1013C00007FC03D04EF40C94ED09509540953095F0
:1013D00021953F4F4F4F5F4F0895909580957095A1
:1013E00061957F4F8F4F9F4F08950E94000AA59FE0
:1013F000900DB49F900DA49F800D911D1124089510
:10140000A29FB001B39FC001A39F700D811D112445
:10141000911DB29F700D811D1124911D089550588A
:10142000BB27AA270E94270A0C94A10B0E94930BAA
:1014300038F00E949A0B20F039F49F3F19F426F4FB
:101440000C94900B0EF4E095E7FB0C948A0BE92FBB
:101450000E94B20B58F3BA17620773078407950707
:1014600020F079F4A6F50C94D40B0EF4E0950B2E35
:10147000BA2FA02D0B01B90190010C01CA01A001E6
:101480001124FF27591B99F0593F50F4503E68F141
:101490001A16F040A22F232F342F4427585FF3CF82
:1014A000469537952795A795F0405395C9F77EF453
:1014B0001F16BA0B620B730B840BBAF09150A1F09C
:1014C000FF0FBB1F661F771F881FC2F70EC0BA0F22
:1014D000621F731F841F48F4879577956795B795AA
:1014E000F7959E3F08F0B0CF9395880F08F09927A5
:1014F000EE0F9795879508950E94660B08F481E09A
:1015000008950E94950A0C94A10B0E949A0B58F022
:101510000E94930B40F029F45F3F29F00C948A0B52
:1015200051110C94D50B0C94900B0E94B20B68F3E4
:101530009923B1F3552391F3951B550BBB27AA278C
:1015400062177307840738F09F5F5F4F220F331FC6
:10155000441FAA1FA9F335D00E2E3AF0E0E832D08E
:1015600091505040E695001CCAF72BD0FE2F29D091
:10157000660F771F881FBB1F261737074807AB0763
:10158000B0E809F0BB0B802DBF01FF2793585F4FD8
:101590003AF09E3F510578F00C948A0B0C94D50BD1
:1015A0005F3FE4F3983ED4F3869577956795B795BA
:1015B000F7959F5FC9F7880F911D9695879597F9C5
:1015C0000895E1E0660F771F881FBB1F621773073E
:1015D0008407BA0720F0621B730B840BBA0BEE1F53
:1015E00088F7E09508950E94FA0A6894B1110C9466
:1015F000D50B08950E94BA0B88F09F5798F0B92F29
:101600009927B751B0F0E1F0660F771F881F991F37
:101610001AF0BA95C9F714C0B13091F00E94D40BFA
:10162000B1E008950C94D40B672F782F8827B85F0A
:1016300039F0B93FCCF3869577956795B395D9F78F
:101640003EF490958095709561957F4F8F4F9F4F99
:101650000895E89409C097FB3EF4909580957095A5
:1016600061957F4F8F4F9F4F9923A9F0F92F96E9EE
:10167000BB279395F695879577956795B795F11163
:10168000F8CFFAF4BB0F11F460FF1BC06F5F7F4F00
:101690008F4F9F4F16C0882311F096E911C0772312
:1016A00021F09EE8872F762F05C0662371F096E81B
:1016B000862F70E060E02AF09A95660F771F881FEA
:1016C000DAF7880F9695879597F90895990F00088E
:1016D000550FAA0BE0E8FEEF16161706E807F90704
:1016E000C0F012161306E407F50798F0621B730B9F
:1016F000840B950B39F40A2661F0232B242B252B20
:1017000021F408950A2609F4A140A6958FEF811DC2
:10171000811D089597F99F6780E870E060E0089563
:101720009FEF80EC089500240A94161617061806F9
:101730000906089500240A941216130614060506D5
:101740000895092E0394000C11F4882352F0BB0F66
:1017500040F4BF2B11F460FF04C06F5F7F4F8F4FC9
:101760009F4F089557FD9058440F551F59F05F3F04
:1017700071F04795880F97FB991F61F09F3F79F0B3
:1017800087950895121613061406551FF2CF469535
:10179000F1DF08C0161617061806991FF1CF8695B7
:1017A0007105610508940895E894BB27662777279B
:1017B000CB0197F908950E94660B08F48FEF089506
:1017C0000E94F30B0C94A10B0E94930B38F00E9423
:1017D0009A0B20F0952311F00C948A0B0C94900B2B
:1017E00011240C94D50B0E94B20B70F3959FC1F39A
:1017F000950F50E0551F629FF001729FBB27F00DBF
:10180000B11D639FAA27F00DB11DAA1F649F662713
:10181000B00DA11D661F829F2227B00DA11D621F62
:10182000739FB00DA11D621F839FA00D611D221F1C
:10183000749F3327A00D611D231F849F600D211D00
:10184000822F762F6A2F11249F5750409AF0F1F083
:1018500088234AF0EE0FFF1FBB1F661F771F881FEC
:1018600091505040A9F79E3F510580F00C948A0B8F
:101870000C94D50B5F3FE4F3983ED4F386957795AF
:101880006795B795F795E7959F5FC1F7FE2B880F92
:10189000911D9695879597F9089519F416F40C946F
:1018A000900B0C94930C0E94BA0BB8F39923C9F3D4
:1018B000B6F39F57550B87FF0E94A10C0024A0E6AA
:1018C00040EA900180585695979528F4805C660F01
:1018D000771F881F20F026173707480730F4621B50
:1018E000730B840B202931294A2BA6951794079452
:1018F000202531254A2758F7660F771F881F20F0CB
:1019000026173707480730F4620B730B840B200D42
:10191000311D411DA09581F7B901842F9158880F81
:101920009695879508959F3F31F0915020F48795C3
:1019300077956795B795880F911D9695879597F937
:10194000089591505040660F771F881FD2F7089571
:10195000EF920F931F93CF93DF93E80134E047FD9D
:1019600034E1042E000C550B57FF03C051954195EF
:101970005109E32E022F242FAE010E94FD0CCE014F
:10198000DF91CF911F910F91EF900895FB01DC0142
:101990000D900020E9F7119701900D920020E1F7DA
:1019A0000895FB01DC0101900D920020E1F70895FC
:1019B000BB274A3031F4992322F4BDE290958195FA
:1019C0009F4F0C94E40CBB27FB015527AA27880FD7
:1019D000991FAA1FA41710F0A41B83955051B9F7A3
:1019E000A05DAA3308F0A95DA193009779F7B11122
:1019F000B1931192CB010C94370FA9E0B0E0E3E072
:101A0000FDE00C944D0F6A01F22EB02E102F0BE367
:101A10000B1508F41BE31F5F012F27E0AE014F5F9A
:101A20005F4F0E945F0EBC018981982F99709130A1
:101A3000C9F19BE2E1FC04C09E2D9170E0FC90E2B4
:101A40005E2D5071E82FE87083FF48C083E091114C
:101A500084E0EF2DE81B8F1508F0E0E0552371F1CD
:101A6000992319F0D6019D936D01C6010396E2FEFC
:101A700029C02EE4D6012C9331E411963C931197A2
:101A800012962C932E2F382F492F50E221111FC070
:101A9000E80FF92FF11D10828EEF9FEF2996ECE0F1
:101AA0000C94690F9DE2CCCFD9014D9381509D01DB
:101AB0008111FACFCE0ED11CE0E0D2CF8E2F96014D
:101AC00040E2F6CF2EE6D6012C9331E6D6CFA32FF7
:101AD000B42F5D9321503A2F4B2FD8CF482F44700D
:101AE00082FF41C083E0911184E08F1510F4EF2D47
:101AF000E81B552359F1992319F0D6019D936D01E7
:101B0000C6010396E2FE26C029E4D6012C932EE4FA
:101B100011962C93119726E412962C932E2F382F82
:101B2000492F50E2222309F4B3CFA32FB42F5D93A2
:101B300021503A2F4B2FF6CFD9014D9381509D0163
:101B40008111FACFCE0ED11CE0E0D5CF8E2F9601B9
:101B500040E2F6CF29E6D6012C932EE611962C937F
:101B6000119726E6D9CF9B0177FF02C030E020E035
:101B7000A1E0B0E0911102C0B0E0A0E0F90131961F
:101B8000AE0FBF1F8B2C912CBB20F1F05401EFEF57
:101B9000AE1ABE0AAA0DBB1DFA161B0619F014F0E8
:101BA0004F2D4A1B511145C0E3FC08C07601A42FFC
:101BB000B0E2A1110CC0C40ED11C40E091113BC099
:101BC000D601942F50E30AC0B12CA12CE3CFF7012A
:101BD000B1937F01A150EDCF5D9391509111FCCF56
:101BE000C40ED11C40E02DC001E03AC050E354C007
:101BF0006217730739F4A63320F4A53319F4B11131
:101C000001C051E3D6015C93242F382F592F60E295
:101C1000211108C0480F592F511DFA01108290E080
:101C200080E03CCFE32FF52F619321503E2F5F2FB3
:101C3000EFCF992331F0D6019D936D01552309F41F
:101C4000BFCF012F060FAA81B82FB07184FF03C048
:101C5000A13309F4015010163CF6093008F008E0F1
:101C6000FB01E01BF1098F01EE24FF24E818F908BD
:101C70008EE2B82E621773070CF4B8CF0217130761
:101C80000CF0B4CFFB01E21BF30B81E090E08C0F72
:101C90009D1FE80FF91F518121503109C60101969E
:101CA0002E153F050CF4A4CFF60150832F3F3207C9
:101CB00021F4C6010296F601B1826C01DBCF283017
:101CC00008F027E03327DA01990F311D87FD916075
:101CD00000966105710539F432602E5F3D9330E363
:101CE0002A95E1F708959F3F30F08038710561052E
:101CF00009F03C5F3C5F3D93913008F08068911D96
:101D0000DF93CF931F930F93FF92EF92192F987F3A
:101D10009695E92F96959695E90FFF27EE53FF4F7D
:101D200099273327EE24FF24A701E70105900894A3
:101D3000079428F4360FE71EF81E491F511D660F41
:101D4000771F881F991F0694A1F70590079428F420
:101D5000E70EF81E491F561FC11D770F881F991FD8
:101D6000661F0694A1F70590079428F4F80E491F02
:101D7000561FC71FD11D880F991F661F771F069416
:101D8000A1F70590079420F4490F561FC71FD81FCD
:101D9000990F661F771F881F0694A9F784911095E5
:101DA000177041F0D695C79557954795F794E794E6
:101DB0001A95C1F7E8E6F0E0689415901591359111
:101DC0006591959105907FE27395E118F10A430BB7
:101DD000560BC90BD009C0F7E10CF11E431F561F6B
:101DE000C91FD01D7EF4703311F48A95E6CFE894B4
:101DF000015030F0080F0AF40027021708F4202FD2
:101E00002395022F7A3328F079E37D932A95E9F719
:101E100010C07D932A9589F6069497956795379516
:101E200017951794E118F10A430B560BC90BD0090B
:101E300098F023957E9173957A3308F070E37C9344
:101E40002013B8F77E9170617D9330F0839571E334
:101E50007D9370E32A95E1F71124EF90FF900F91A5
:101E60001F91CF91DF91992787FD90950895DC010F
:101E7000FC01672F71917723E1F7329704C07C91C1
:101E80006D9370836291AE17BF07C8F308952F92C8
:101E90003F924F925F926F927F928F929F92AF92FA
:101EA000BF92CF92DF92EF92FF920F931F93CF9347
:101EB000DF93CDB7DEB7CA1BDB0B0FB6F894DEBFDE
:101EC0000FBECDBF09942A88398848885F846E8404
:101ED0007D848C849B84AA84B984C884DF80EE804E
:101EE000FD800C811B81AA81B981CE0FD11D0FB657
:101EF000F894DEBF0FBECDBFED010895F894FFCF7B
:101F00000000C842AEC7C8425C8FC9420A57CA42E5
:101F1000B81ECB4266E6CB4214AECC42C375CD426E
:101F2000713DCE421F05CF42CDCCCF427B94D042F3
:101F3000295CD142D723D24285EBD24233B3D3427C
:101F4000E17AD4428F42D5423D0AD642CDCCD64228
:101F50007B94D742295CD842D723D94285EBD9421A
:101F600033B3DA42C375DB42713DDC421F05DD420B
:101F7000CDCCDD427B94DE420A57DF42B81EE04200
:101F800066E6E042F6A8E142A470E2425238E3423B
:101F90000000E4428FC2E4423D8AE542CD4CE64275
:101FA0007B14E74229DCE742B89EE8426666E942D4
:101FB000F628EA42A4F0EA4252B8EB42E17AEC4257
:101FC0008F42ED421F05EE42CDCCEE425C8FEF42D8
:101FD0000A57F0429A19F14248E1F142D7A3F2427E
:101FE000856BF342142EF442A4F0F44252B8F54249
:101FF000E17AF6428F42F7421F05F842AEC7F84237
:102000005C8FF942EC51FA427B14FB4229DCFB4223
:10201000B89EFC424861FD42F628FE4285EBFE4236
:1020200014AEFF4252380043299C004371FD004327
:10203000B85E014300C00143482102431F850243AB
:1020400000805A43000061430C01EE02230020008F
:022050000A0084
:00000001FF
